{
	"src/lottery.sol": {
		"Lottery": {
			"abi": [
				{
					"inputs": [],
					"stateMutability": "nonpayable",
					"type": "constructor"
				},
				{
					"inputs": [],
					"name": "getBalance",
					"outputs": [
						{
							"internalType": "uint256",
							"name": "",
							"type": "uint256"
						}
					],
					"stateMutability": "view",
					"type": "function"
				},
				{
					"inputs": [],
					"name": "manager",
					"outputs": [
						{
							"internalType": "address",
							"name": "",
							"type": "address"
						}
					],
					"stateMutability": "view",
					"type": "function"
				},
				{
					"inputs": [],
					"name": "pickWinner",
					"outputs": [],
					"stateMutability": "nonpayable",
					"type": "function"
				},
				{
					"inputs": [
						{
							"internalType": "uint256",
							"name": "",
							"type": "uint256"
						}
					],
					"name": "players",
					"outputs": [
						{
							"internalType": "address payable",
							"name": "",
							"type": "address"
						}
					],
					"stateMutability": "view",
					"type": "function"
				},
				{
					"inputs": [],
					"name": "random",
					"outputs": [
						{
							"internalType": "uint256",
							"name": "",
							"type": "uint256"
						}
					],
					"stateMutability": "view",
					"type": "function"
				},
				{
					"stateMutability": "payable",
					"type": "receive"
				}
			],
			"devdoc": {
				"kind": "dev",
				"methods": {},
				"version": 1
			},
			"evm": {
				"assembly": "    /* \"src/lottery.sol\":56:1935  contract Lottery{... */\n  mstore(0x40, 0x80)\n    /* \"src/lottery.sol\":434:484  constructor(){... */\n  callvalue\n  dup1\n  iszero\n  tag_1\n  jumpi\n  revert(0x00, 0x00)\ntag_1:\n  pop\n    /* \"src/lottery.sol\":467:477  msg.sender */\n  caller\n    /* \"src/lottery.sol\":457:464  manager */\n  0x01\n  0x00\n    /* \"src/lottery.sol\":457:477  manager = msg.sender */\n  0x0100\n  exp\n  dup2\n  sload\n  dup2\n  0xffffffffffffffffffffffffffffffffffffffff\n  mul\n  not\n  and\n  swap1\n  dup4\n  0xffffffffffffffffffffffffffffffffffffffff\n  and\n  mul\n  or\n  swap1\n  sstore\n  pop\n    /* \"src/lottery.sol\":56:1935  contract Lottery{... */\n  dataSize(sub_0)\n  dup1\n  dataOffset(sub_0)\n  0x00\n  codecopy\n  0x00\n  return\nstop\n\nsub_0: assembly {\n        /* \"src/lottery.sol\":56:1935  contract Lottery{... */\n      mstore(0x40, 0x80)\n      jumpi(tag_1, lt(calldatasize, 0x04))\n      shr(0xe0, calldataload(0x00))\n      dup1\n      0x12065fe0\n      eq\n      tag_3\n      jumpi\n      dup1\n      0x481c6a75\n      eq\n      tag_4\n      jumpi\n      dup1\n      0x5d495aea\n      eq\n      tag_5\n      jumpi\n      dup1\n      0x5ec01e4d\n      eq\n      tag_6\n      jumpi\n      dup1\n      0xf71d96cb\n      eq\n      tag_7\n      jumpi\n      jump(tag_2)\n    tag_1:\n      jumpi(tag_2, calldatasize)\n        /* \"src/lottery.sol\":710:719  0.1 ether */\n      0x016345785d8a0000\n        /* \"src/lottery.sol\":697:706  msg.value */\n      callvalue\n        /* \"src/lottery.sol\":697:719  msg.value == 0.1 ether */\n      eq\n        /* \"src/lottery.sol\":689:720  require(msg.value == 0.1 ether) */\n      tag_10\n      jumpi\n      revert(0x00, 0x00)\n    tag_10:\n        /* \"src/lottery.sol\":858:865  players */\n      0x00\n        /* \"src/lottery.sol\":879:889  msg.sender */\n      caller\n        /* \"src/lottery.sol\":858:891  players.push(payable(msg.sender)) */\n      swap1\n      dup1\n      0x01\n      dup2\n      sload\n      add\n      dup1\n      dup3\n      sstore\n      dup1\n      swap2\n      pop\n      pop\n      0x01\n      swap1\n      sub\n      swap1\n      0x00\n      mstore\n      keccak256(0x00, 0x20)\n      add\n      0x00\n      swap1\n      swap2\n      swap1\n      swap2\n      swap1\n      swap2\n      0x0100\n      exp\n      dup2\n      sload\n      dup2\n      0xffffffffffffffffffffffffffffffffffffffff\n      mul\n      not\n      and\n      swap1\n      dup4\n      0xffffffffffffffffffffffffffffffffffffffff\n      and\n      mul\n      or\n      swap1\n      sstore\n      stop\n        /* \"src/lottery.sol\":56:1935  contract Lottery{... */\n    tag_2:\n      revert(0x00, 0x00)\n        /* \"src/lottery.sol\":1014:1146  function getBalance() public view returns(uint){... */\n    tag_3:\n      callvalue\n      dup1\n      iszero\n      tag_12\n      jumpi\n      revert(0x00, 0x00)\n    tag_12:\n      pop\n      tag_13\n      tag_14\n      jump\t// in\n    tag_13:\n      mload(0x40)\n      tag_15\n      swap2\n      swap1\n      tag_16\n      jump\t// in\n    tag_15:\n      mload(0x40)\n      dup1\n      swap2\n      sub\n      swap1\n      return\n        /* \"src/lottery.sol\":349:371  address public manager */\n    tag_4:\n      callvalue\n      dup1\n      iszero\n      tag_17\n      jumpi\n      revert(0x00, 0x00)\n    tag_17:\n      pop\n      tag_18\n      tag_19\n      jump\t// in\n    tag_18:\n      mload(0x40)\n      tag_20\n      swap2\n      swap1\n      tag_21\n      jump\t// in\n    tag_20:\n      mload(0x40)\n      dup1\n      swap2\n      sub\n      swap1\n      return\n        /* \"src/lottery.sol\":1345:1932  function pickWinner() public{... */\n    tag_5:\n      callvalue\n      dup1\n      iszero\n      tag_22\n      jumpi\n      revert(0x00, 0x00)\n    tag_22:\n      pop\n      tag_23\n      tag_24\n      jump\t// in\n    tag_23:\n      stop\n        /* \"src/lottery.sol\":1188:1339  function random() public view returns(uint){... */\n    tag_6:\n      callvalue\n      dup1\n      iszero\n      tag_25\n      jumpi\n      revert(0x00, 0x00)\n    tag_25:\n      pop\n      tag_26\n      tag_27\n      jump\t// in\n    tag_26:\n      mload(0x40)\n      tag_28\n      swap2\n      swap1\n      tag_16\n      jump\t// in\n    tag_28:\n      mload(0x40)\n      dup1\n      swap2\n      sub\n      swap1\n      return\n        /* \"src/lottery.sol\":226:258  address payable[] public players */\n    tag_7:\n      callvalue\n      dup1\n      iszero\n      tag_29\n      jumpi\n      revert(0x00, 0x00)\n    tag_29:\n      pop\n      tag_30\n      0x04\n      dup1\n      calldatasize\n      sub\n      dup2\n      add\n      swap1\n      tag_31\n      swap2\n      swap1\n      tag_32\n      jump\t// in\n    tag_31:\n      tag_33\n      jump\t// in\n    tag_30:\n      mload(0x40)\n      tag_34\n      swap2\n      swap1\n      tag_35\n      jump\t// in\n    tag_34:\n      mload(0x40)\n      dup1\n      swap2\n      sub\n      swap1\n      return\n        /* \"src/lottery.sol\":1014:1146  function getBalance() public view returns(uint){... */\n    tag_14:\n        /* \"src/lottery.sol\":1056:1060  uint */\n      0x00\n        /* \"src/lottery.sol\":1093:1100  manager */\n      0x01\n      0x00\n      swap1\n      sload\n      swap1\n      0x0100\n      exp\n      swap1\n      div\n      0xffffffffffffffffffffffffffffffffffffffff\n      and\n        /* \"src/lottery.sol\":1079:1100  msg.sender == manager */\n      0xffffffffffffffffffffffffffffffffffffffff\n      and\n        /* \"src/lottery.sol\":1079:1089  msg.sender */\n      caller\n        /* \"src/lottery.sol\":1079:1100  msg.sender == manager */\n      0xffffffffffffffffffffffffffffffffffffffff\n      and\n      eq\n        /* \"src/lottery.sol\":1071:1101  require(msg.sender == manager) */\n      tag_37\n      jumpi\n      revert(0x00, 0x00)\n    tag_37:\n        /* \"src/lottery.sol\":1118:1139  address(this).balance */\n      selfbalance\n        /* \"src/lottery.sol\":1111:1139  return address(this).balance */\n      swap1\n      pop\n        /* \"src/lottery.sol\":1014:1146  function getBalance() public view returns(uint){... */\n      swap1\n      jump\t// out\n        /* \"src/lottery.sol\":349:371  address public manager */\n    tag_19:\n      0x01\n      0x00\n      swap1\n      sload\n      swap1\n      0x0100\n      exp\n      swap1\n      div\n      0xffffffffffffffffffffffffffffffffffffffff\n      and\n      dup2\n      jump\t// out\n        /* \"src/lottery.sol\":1345:1932  function pickWinner() public{... */\n    tag_24:\n        /* \"src/lottery.sol\":1495:1502  manager */\n      0x01\n      0x00\n      swap1\n      sload\n      swap1\n      0x0100\n      exp\n      swap1\n      div\n      0xffffffffffffffffffffffffffffffffffffffff\n      and\n        /* \"src/lottery.sol\":1481:1502  msg.sender == manager */\n      0xffffffffffffffffffffffffffffffffffffffff\n      and\n        /* \"src/lottery.sol\":1481:1491  msg.sender */\n      caller\n        /* \"src/lottery.sol\":1481:1502  msg.sender == manager */\n      0xffffffffffffffffffffffffffffffffffffffff\n      and\n      eq\n        /* \"src/lottery.sol\":1473:1550  require(msg.sender == manager, \"Only the manager can pick a lottery winner.\") */\n      tag_39\n      jumpi\n      mload(0x40)\n      0x08c379a000000000000000000000000000000000000000000000000000000000\n      dup2\n      mstore\n      0x04\n      add\n      tag_40\n      swap1\n      tag_41\n      jump\t// in\n    tag_40:\n      mload(0x40)\n      dup1\n      swap2\n      sub\n      swap1\n      revert\n    tag_39:\n        /* \"src/lottery.sol\":1586:1587  3 */\n      0x03\n        /* \"src/lottery.sol\":1568:1575  players */\n      0x00\n        /* \"src/lottery.sol\":1568:1582  players.length */\n      dup1\n      sload\n      swap1\n      pop\n        /* \"src/lottery.sol\":1568:1587  players.length >= 3 */\n      lt\n      iszero\n        /* \"src/lottery.sol\":1560:1628  require(players.length >= 3, \"Is necessary at least three players.\") */\n      tag_42\n      jumpi\n      mload(0x40)\n      0x08c379a000000000000000000000000000000000000000000000000000000000\n      dup2\n      mstore\n      0x04\n      add\n      tag_43\n      swap1\n      tag_44\n      jump\t// in\n    tag_43:\n      mload(0x40)\n      dup1\n      swap2\n      sub\n      swap1\n      revert\n    tag_42:\n        /* \"src/lottery.sol\":1697:1703  uint r */\n      0x00\n        /* \"src/lottery.sol\":1706:1714  random() */\n      tag_45\n        /* \"src/lottery.sol\":1706:1712  random */\n      tag_27\n        /* \"src/lottery.sol\":1706:1714  random() */\n      jump\t// in\n    tag_45:\n        /* \"src/lottery.sol\":1697:1714  uint r = random() */\n      swap1\n      pop\n        /* \"src/lottery.sol\":1724:1746  address payable winner */\n      0x00\n        /* \"src/lottery.sol\":1756:1766  uint index */\n      0x00\n        /* \"src/lottery.sol\":1773:1780  players */\n      0x00\n        /* \"src/lottery.sol\":1773:1787  players.length */\n      dup1\n      sload\n      swap1\n      pop\n        /* \"src/lottery.sol\":1769:1770  r */\n      dup4\n        /* \"src/lottery.sol\":1769:1787  r % players.length */\n      tag_46\n      swap2\n      swap1\n      tag_47\n      jump\t// in\n    tag_46:\n        /* \"src/lottery.sol\":1756:1787  uint index = r % players.length */\n      swap1\n      pop\n        /* \"src/lottery.sol\":1806:1813  players */\n      0x00\n        /* \"src/lottery.sol\":1814:1819  index */\n      dup2\n        /* \"src/lottery.sol\":1806:1820  players[index] */\n      dup2\n      sload\n      dup2\n      lt\n      tag_48\n      jumpi\n      tag_49\n      tag_50\n      jump\t// in\n    tag_49:\n    tag_48:\n      swap1\n      0x00\n      mstore\n      keccak256(0x00, 0x20)\n      add\n      0x00\n      swap1\n      sload\n      swap1\n      0x0100\n      exp\n      swap1\n      div\n      0xffffffffffffffffffffffffffffffffffffffff\n      and\n        /* \"src/lottery.sol\":1797:1820  winner = players[index] */\n      swap2\n      pop\n        /* \"src/lottery.sol\":1895:1901  winner */\n      dup2\n        /* \"src/lottery.sol\":1895:1910  winner.transfer */\n      0xffffffffffffffffffffffffffffffffffffffff\n      and\n        /* \"src/lottery.sol\":1895:1924  winner.transfer(getBalance()) */\n      0x08fc\n        /* \"src/lottery.sol\":1911:1923  getBalance() */\n      tag_52\n        /* \"src/lottery.sol\":1911:1921  getBalance */\n      tag_14\n        /* \"src/lottery.sol\":1911:1923  getBalance() */\n      jump\t// in\n    tag_52:\n        /* \"src/lottery.sol\":1895:1924  winner.transfer(getBalance()) */\n      swap1\n      dup2\n      iszero\n      mul\n      swap1\n      mload(0x40)\n      0x00\n      mload(0x40)\n      dup1\n      dup4\n      sub\n      dup2\n      dup6\n      dup9\n      dup9\n      call\n      swap4\n      pop\n      pop\n      pop\n      pop\n      iszero\n      dup1\n      iszero\n      tag_54\n      jumpi\n      returndatacopy(0x00, 0x00, returndatasize)\n      revert(0x00, returndatasize)\n    tag_54:\n      pop\n        /* \"src/lottery.sol\":1373:1932  {... */\n      pop\n      pop\n      pop\n        /* \"src/lottery.sol\":1345:1932  function pickWinner() public{... */\n      jump\t// out\n        /* \"src/lottery.sol\":1188:1339  function random() public view returns(uint){... */\n    tag_27:\n        /* \"src/lottery.sol\":1226:1230  uint */\n      0x00\n        /* \"src/lottery.sol\":1280:1296  block.prevrandao */\n      prevrandao\n        /* \"src/lottery.sol\":1298:1313  block.timestamp */\n      timestamp\n        /* \"src/lottery.sol\":1315:1322  players */\n      0x00\n        /* \"src/lottery.sol\":1315:1329  players.length */\n      dup1\n      sload\n      swap1\n      pop\n        /* \"src/lottery.sol\":1263:1330  abi.encodePacked(block.prevrandao, block.timestamp, players.length) */\n      add(0x20, mload(0x40))\n      tag_56\n      swap4\n      swap3\n      swap2\n      swap1\n      tag_57\n      jump\t// in\n    tag_56:\n      mload(0x40)\n      0x20\n      dup2\n      dup4\n      sub\n      sub\n      dup2\n      mstore\n      swap1\n      0x40\n      mstore\n        /* \"src/lottery.sol\":1253:1331  keccak256(abi.encodePacked(block.prevrandao, block.timestamp, players.length)) */\n      dup1\n      mload\n      swap1\n      0x20\n      add\n      keccak256\n        /* \"src/lottery.sol\":1248:1332  uint(keccak256(abi.encodePacked(block.prevrandao, block.timestamp, players.length))) */\n      0x00\n      shr\n        /* \"src/lottery.sol\":1241:1332  return uint(keccak256(abi.encodePacked(block.prevrandao, block.timestamp, players.length))) */\n      swap1\n      pop\n        /* \"src/lottery.sol\":1188:1339  function random() public view returns(uint){... */\n      swap1\n      jump\t// out\n        /* \"src/lottery.sol\":226:258  address payable[] public players */\n    tag_33:\n      0x00\n      dup2\n      dup2\n      sload\n      dup2\n      lt\n      tag_58\n      jumpi\n      0x00\n      dup1\n      revert\n    tag_58:\n      swap1\n      0x00\n      mstore\n      keccak256(0x00, 0x20)\n      add\n      0x00\n      swap2\n      pop\n      sload\n      swap1\n      0x0100\n      exp\n      swap1\n      div\n      0xffffffffffffffffffffffffffffffffffffffff\n      and\n      dup2\n      jump\t// out\n        /* \"#utility.yul\":7:84   */\n    tag_60:\n        /* \"#utility.yul\":44:51   */\n      0x00\n        /* \"#utility.yul\":73:78   */\n      dup2\n        /* \"#utility.yul\":62:78   */\n      swap1\n      pop\n        /* \"#utility.yul\":7:84   */\n      swap2\n      swap1\n      pop\n      jump\t// out\n        /* \"#utility.yul\":90:208   */\n    tag_61:\n        /* \"#utility.yul\":177:201   */\n      tag_83\n        /* \"#utility.yul\":195:200   */\n      dup2\n        /* \"#utility.yul\":177:201   */\n      tag_60\n      jump\t// in\n    tag_83:\n        /* \"#utility.yul\":172:175   */\n      dup3\n        /* \"#utility.yul\":165:202   */\n      mstore\n        /* \"#utility.yul\":90:208   */\n      pop\n      pop\n      jump\t// out\n        /* \"#utility.yul\":214:436   */\n    tag_16:\n        /* \"#utility.yul\":307:311   */\n      0x00\n        /* \"#utility.yul\":345:347   */\n      0x20\n        /* \"#utility.yul\":334:343   */\n      dup3\n        /* \"#utility.yul\":330:348   */\n      add\n        /* \"#utility.yul\":322:348   */\n      swap1\n      pop\n        /* \"#utility.yul\":358:429   */\n      tag_85\n        /* \"#utility.yul\":426:427   */\n      0x00\n        /* \"#utility.yul\":415:424   */\n      dup4\n        /* \"#utility.yul\":411:428   */\n      add\n        /* \"#utility.yul\":402:408   */\n      dup5\n        /* \"#utility.yul\":358:429   */\n      tag_61\n      jump\t// in\n    tag_85:\n        /* \"#utility.yul\":214:436   */\n      swap3\n      swap2\n      pop\n      pop\n      jump\t// out\n        /* \"#utility.yul\":442:568   */\n    tag_62:\n        /* \"#utility.yul\":479:486   */\n      0x00\n        /* \"#utility.yul\":519:561   */\n      0xffffffffffffffffffffffffffffffffffffffff\n        /* \"#utility.yul\":512:517   */\n      dup3\n        /* \"#utility.yul\":508:562   */\n      and\n        /* \"#utility.yul\":497:562   */\n      swap1\n      pop\n        /* \"#utility.yul\":442:568   */\n      swap2\n      swap1\n      pop\n      jump\t// out\n        /* \"#utility.yul\":574:670   */\n    tag_63:\n        /* \"#utility.yul\":611:618   */\n      0x00\n        /* \"#utility.yul\":640:664   */\n      tag_88\n        /* \"#utility.yul\":658:663   */\n      dup3\n        /* \"#utility.yul\":640:664   */\n      tag_62\n      jump\t// in\n    tag_88:\n        /* \"#utility.yul\":629:664   */\n      swap1\n      pop\n        /* \"#utility.yul\":574:670   */\n      swap2\n      swap1\n      pop\n      jump\t// out\n        /* \"#utility.yul\":676:794   */\n    tag_64:\n        /* \"#utility.yul\":763:787   */\n      tag_90\n        /* \"#utility.yul\":781:786   */\n      dup2\n        /* \"#utility.yul\":763:787   */\n      tag_63\n      jump\t// in\n    tag_90:\n        /* \"#utility.yul\":758:761   */\n      dup3\n        /* \"#utility.yul\":751:788   */\n      mstore\n        /* \"#utility.yul\":676:794   */\n      pop\n      pop\n      jump\t// out\n        /* \"#utility.yul\":800:1022   */\n    tag_21:\n        /* \"#utility.yul\":893:897   */\n      0x00\n        /* \"#utility.yul\":931:933   */\n      0x20\n        /* \"#utility.yul\":920:929   */\n      dup3\n        /* \"#utility.yul\":916:934   */\n      add\n        /* \"#utility.yul\":908:934   */\n      swap1\n      pop\n        /* \"#utility.yul\":944:1015   */\n      tag_92\n        /* \"#utility.yul\":1012:1013   */\n      0x00\n        /* \"#utility.yul\":1001:1010   */\n      dup4\n        /* \"#utility.yul\":997:1014   */\n      add\n        /* \"#utility.yul\":988:994   */\n      dup5\n        /* \"#utility.yul\":944:1015   */\n      tag_64\n      jump\t// in\n    tag_92:\n        /* \"#utility.yul\":800:1022   */\n      swap3\n      swap2\n      pop\n      pop\n      jump\t// out\n        /* \"#utility.yul\":1109:1226   */\n    tag_66:\n        /* \"#utility.yul\":1218:1219   */\n      0x00\n        /* \"#utility.yul\":1215:1216   */\n      0x00\n        /* \"#utility.yul\":1208:1220   */\n      revert\n        /* \"#utility.yul\":1355:1477   */\n    tag_68:\n        /* \"#utility.yul\":1428:1452   */\n      tag_97\n        /* \"#utility.yul\":1446:1451   */\n      dup2\n        /* \"#utility.yul\":1428:1452   */\n      tag_60\n      jump\t// in\n    tag_97:\n        /* \"#utility.yul\":1421:1426   */\n      dup2\n        /* \"#utility.yul\":1418:1453   */\n      eq\n        /* \"#utility.yul\":1408:1471   */\n      tag_98\n      jumpi\n        /* \"#utility.yul\":1467:1468   */\n      0x00\n        /* \"#utility.yul\":1464:1465   */\n      0x00\n        /* \"#utility.yul\":1457:1469   */\n      revert\n        /* \"#utility.yul\":1408:1471   */\n    tag_98:\n        /* \"#utility.yul\":1355:1477   */\n      pop\n      jump\t// out\n        /* \"#utility.yul\":1483:1622   */\n    tag_69:\n        /* \"#utility.yul\":1529:1534   */\n      0x00\n        /* \"#utility.yul\":1567:1573   */\n      dup2\n        /* \"#utility.yul\":1554:1574   */\n      calldataload\n        /* \"#utility.yul\":1545:1574   */\n      swap1\n      pop\n        /* \"#utility.yul\":1583:1616   */\n      tag_100\n        /* \"#utility.yul\":1610:1615   */\n      dup2\n        /* \"#utility.yul\":1583:1616   */\n      tag_68\n      jump\t// in\n    tag_100:\n        /* \"#utility.yul\":1483:1622   */\n      swap3\n      swap2\n      pop\n      pop\n      jump\t// out\n        /* \"#utility.yul\":1628:1957   */\n    tag_32:\n        /* \"#utility.yul\":1687:1693   */\n      0x00\n        /* \"#utility.yul\":1736:1738   */\n      0x20\n        /* \"#utility.yul\":1724:1733   */\n      dup3\n        /* \"#utility.yul\":1715:1722   */\n      dup5\n        /* \"#utility.yul\":1711:1734   */\n      sub\n        /* \"#utility.yul\":1707:1739   */\n      slt\n        /* \"#utility.yul\":1704:1823   */\n      iszero\n      tag_102\n      jumpi\n        /* \"#utility.yul\":1742:1821   */\n      tag_103\n      tag_66\n      jump\t// in\n    tag_103:\n        /* \"#utility.yul\":1704:1823   */\n    tag_102:\n        /* \"#utility.yul\":1862:1863   */\n      0x00\n        /* \"#utility.yul\":1887:1940   */\n      tag_104\n        /* \"#utility.yul\":1932:1939   */\n      dup5\n        /* \"#utility.yul\":1923:1929   */\n      dup3\n        /* \"#utility.yul\":1912:1921   */\n      dup6\n        /* \"#utility.yul\":1908:1930   */\n      add\n        /* \"#utility.yul\":1887:1940   */\n      tag_69\n      jump\t// in\n    tag_104:\n        /* \"#utility.yul\":1877:1940   */\n      swap2\n      pop\n        /* \"#utility.yul\":1833:1950   */\n      pop\n        /* \"#utility.yul\":1628:1957   */\n      swap3\n      swap2\n      pop\n      pop\n      jump\t// out\n        /* \"#utility.yul\":1963:2067   */\n    tag_70:\n        /* \"#utility.yul\":2008:2015   */\n      0x00\n        /* \"#utility.yul\":2037:2061   */\n      tag_106\n        /* \"#utility.yul\":2055:2060   */\n      dup3\n        /* \"#utility.yul\":2037:2061   */\n      tag_62\n      jump\t// in\n    tag_106:\n        /* \"#utility.yul\":2026:2061   */\n      swap1\n      pop\n        /* \"#utility.yul\":1963:2067   */\n      swap2\n      swap1\n      pop\n      jump\t// out\n        /* \"#utility.yul\":2073:2215   */\n    tag_71:\n        /* \"#utility.yul\":2176:2208   */\n      tag_108\n        /* \"#utility.yul\":2202:2207   */\n      dup2\n        /* \"#utility.yul\":2176:2208   */\n      tag_70\n      jump\t// in\n    tag_108:\n        /* \"#utility.yul\":2171:2174   */\n      dup3\n        /* \"#utility.yul\":2164:2209   */\n      mstore\n        /* \"#utility.yul\":2073:2215   */\n      pop\n      pop\n      jump\t// out\n        /* \"#utility.yul\":2221:2475   */\n    tag_35:\n        /* \"#utility.yul\":2330:2334   */\n      0x00\n        /* \"#utility.yul\":2368:2370   */\n      0x20\n        /* \"#utility.yul\":2357:2366   */\n      dup3\n        /* \"#utility.yul\":2353:2371   */\n      add\n        /* \"#utility.yul\":2345:2371   */\n      swap1\n      pop\n        /* \"#utility.yul\":2381:2468   */\n      tag_110\n        /* \"#utility.yul\":2465:2466   */\n      0x00\n        /* \"#utility.yul\":2454:2463   */\n      dup4\n        /* \"#utility.yul\":2450:2467   */\n      add\n        /* \"#utility.yul\":2441:2447   */\n      dup5\n        /* \"#utility.yul\":2381:2468   */\n      tag_71\n      jump\t// in\n    tag_110:\n        /* \"#utility.yul\":2221:2475   */\n      swap3\n      swap2\n      pop\n      pop\n      jump\t// out\n        /* \"#utility.yul\":2481:2650   */\n    tag_72:\n        /* \"#utility.yul\":2565:2576   */\n      0x00\n        /* \"#utility.yul\":2599:2605   */\n      dup3\n        /* \"#utility.yul\":2594:2597   */\n      dup3\n        /* \"#utility.yul\":2587:2606   */\n      mstore\n        /* \"#utility.yul\":2639:2643   */\n      0x20\n        /* \"#utility.yul\":2634:2637   */\n      dup3\n        /* \"#utility.yul\":2630:2644   */\n      add\n        /* \"#utility.yul\":2615:2644   */\n      swap1\n      pop\n        /* \"#utility.yul\":2481:2650   */\n      swap3\n      swap2\n      pop\n      pop\n      jump\t// out\n        /* \"#utility.yul\":2656:2886   */\n    tag_73:\n        /* \"#utility.yul\":2796:2830   */\n      0x4f6e6c7920746865206d616e616765722063616e207069636b2061206c6f7474\n        /* \"#utility.yul\":2792:2793   */\n      0x00\n        /* \"#utility.yul\":2784:2790   */\n      dup3\n        /* \"#utility.yul\":2780:2794   */\n      add\n        /* \"#utility.yul\":2773:2831   */\n      mstore\n        /* \"#utility.yul\":2865:2878   */\n      0x6572792077696e6e65722e000000000000000000000000000000000000000000\n        /* \"#utility.yul\":2860:2862   */\n      0x20\n        /* \"#utility.yul\":2852:2858   */\n      dup3\n        /* \"#utility.yul\":2848:2863   */\n      add\n        /* \"#utility.yul\":2841:2879   */\n      mstore\n        /* \"#utility.yul\":2656:2886   */\n      pop\n      jump\t// out\n        /* \"#utility.yul\":2892:3258   */\n    tag_74:\n        /* \"#utility.yul\":3034:3037   */\n      0x00\n        /* \"#utility.yul\":3055:3122   */\n      tag_114\n        /* \"#utility.yul\":3119:3121   */\n      0x2b\n        /* \"#utility.yul\":3114:3117   */\n      dup4\n        /* \"#utility.yul\":3055:3122   */\n      tag_72\n      jump\t// in\n    tag_114:\n        /* \"#utility.yul\":3048:3122   */\n      swap2\n      pop\n        /* \"#utility.yul\":3131:3224   */\n      tag_115\n        /* \"#utility.yul\":3220:3223   */\n      dup3\n        /* \"#utility.yul\":3131:3224   */\n      tag_73\n      jump\t// in\n    tag_115:\n        /* \"#utility.yul\":3249:3251   */\n      0x40\n        /* \"#utility.yul\":3244:3247   */\n      dup3\n        /* \"#utility.yul\":3240:3252   */\n      add\n        /* \"#utility.yul\":3233:3252   */\n      swap1\n      pop\n        /* \"#utility.yul\":2892:3258   */\n      swap2\n      swap1\n      pop\n      jump\t// out\n        /* \"#utility.yul\":3264:3683   */\n    tag_41:\n        /* \"#utility.yul\":3430:3434   */\n      0x00\n        /* \"#utility.yul\":3468:3470   */\n      0x20\n        /* \"#utility.yul\":3457:3466   */\n      dup3\n        /* \"#utility.yul\":3453:3471   */\n      add\n        /* \"#utility.yul\":3445:3471   */\n      swap1\n      pop\n        /* \"#utility.yul\":3517:3526   */\n      dup2\n        /* \"#utility.yul\":3511:3515   */\n      dup2\n        /* \"#utility.yul\":3507:3527   */\n      sub\n        /* \"#utility.yul\":3503:3504   */\n      0x00\n        /* \"#utility.yul\":3492:3501   */\n      dup4\n        /* \"#utility.yul\":3488:3505   */\n      add\n        /* \"#utility.yul\":3481:3528   */\n      mstore\n        /* \"#utility.yul\":3545:3676   */\n      tag_117\n        /* \"#utility.yul\":3671:3675   */\n      dup2\n        /* \"#utility.yul\":3545:3676   */\n      tag_74\n      jump\t// in\n    tag_117:\n        /* \"#utility.yul\":3537:3676   */\n      swap1\n      pop\n        /* \"#utility.yul\":3264:3683   */\n      swap2\n      swap1\n      pop\n      jump\t// out\n        /* \"#utility.yul\":3689:3912   */\n    tag_75:\n        /* \"#utility.yul\":3829:3863   */\n      0x4973206e6563657373617279206174206c6561737420746872656520706c6179\n        /* \"#utility.yul\":3825:3826   */\n      0x00\n        /* \"#utility.yul\":3817:3823   */\n      dup3\n        /* \"#utility.yul\":3813:3827   */\n      add\n        /* \"#utility.yul\":3806:3864   */\n      mstore\n        /* \"#utility.yul\":3898:3904   */\n      0x6572732e00000000000000000000000000000000000000000000000000000000\n        /* \"#utility.yul\":3893:3895   */\n      0x20\n        /* \"#utility.yul\":3885:3891   */\n      dup3\n        /* \"#utility.yul\":3881:3896   */\n      add\n        /* \"#utility.yul\":3874:3905   */\n      mstore\n        /* \"#utility.yul\":3689:3912   */\n      pop\n      jump\t// out\n        /* \"#utility.yul\":3918:4284   */\n    tag_76:\n        /* \"#utility.yul\":4060:4063   */\n      0x00\n        /* \"#utility.yul\":4081:4148   */\n      tag_120\n        /* \"#utility.yul\":4145:4147   */\n      0x24\n        /* \"#utility.yul\":4140:4143   */\n      dup4\n        /* \"#utility.yul\":4081:4148   */\n      tag_72\n      jump\t// in\n    tag_120:\n        /* \"#utility.yul\":4074:4148   */\n      swap2\n      pop\n        /* \"#utility.yul\":4157:4250   */\n      tag_121\n        /* \"#utility.yul\":4246:4249   */\n      dup3\n        /* \"#utility.yul\":4157:4250   */\n      tag_75\n      jump\t// in\n    tag_121:\n        /* \"#utility.yul\":4275:4277   */\n      0x40\n        /* \"#utility.yul\":4270:4273   */\n      dup3\n        /* \"#utility.yul\":4266:4278   */\n      add\n        /* \"#utility.yul\":4259:4278   */\n      swap1\n      pop\n        /* \"#utility.yul\":3918:4284   */\n      swap2\n      swap1\n      pop\n      jump\t// out\n        /* \"#utility.yul\":4290:4709   */\n    tag_44:\n        /* \"#utility.yul\":4456:4460   */\n      0x00\n        /* \"#utility.yul\":4494:4496   */\n      0x20\n        /* \"#utility.yul\":4483:4492   */\n      dup3\n        /* \"#utility.yul\":4479:4497   */\n      add\n        /* \"#utility.yul\":4471:4497   */\n      swap1\n      pop\n        /* \"#utility.yul\":4543:4552   */\n      dup2\n        /* \"#utility.yul\":4537:4541   */\n      dup2\n        /* \"#utility.yul\":4533:4553   */\n      sub\n        /* \"#utility.yul\":4529:4530   */\n      0x00\n        /* \"#utility.yul\":4518:4527   */\n      dup4\n        /* \"#utility.yul\":4514:4531   */\n      add\n        /* \"#utility.yul\":4507:4554   */\n      mstore\n        /* \"#utility.yul\":4571:4702   */\n      tag_123\n        /* \"#utility.yul\":4697:4701   */\n      dup2\n        /* \"#utility.yul\":4571:4702   */\n      tag_76\n      jump\t// in\n    tag_123:\n        /* \"#utility.yul\":4563:4702   */\n      swap1\n      pop\n        /* \"#utility.yul\":4290:4709   */\n      swap2\n      swap1\n      pop\n      jump\t// out\n        /* \"#utility.yul\":4715:4895   */\n    tag_77:\n        /* \"#utility.yul\":4763:4840   */\n      0x4e487b7100000000000000000000000000000000000000000000000000000000\n        /* \"#utility.yul\":4760:4761   */\n      0x00\n        /* \"#utility.yul\":4753:4841   */\n      mstore\n        /* \"#utility.yul\":4860:4864   */\n      0x12\n        /* \"#utility.yul\":4857:4858   */\n      0x04\n        /* \"#utility.yul\":4850:4865   */\n      mstore\n        /* \"#utility.yul\":4884:4888   */\n      0x24\n        /* \"#utility.yul\":4881:4882   */\n      0x00\n        /* \"#utility.yul\":4874:4889   */\n      revert\n        /* \"#utility.yul\":4901:5077   */\n    tag_47:\n        /* \"#utility.yul\":4933:4934   */\n      0x00\n        /* \"#utility.yul\":4950:4970   */\n      tag_126\n        /* \"#utility.yul\":4968:4969   */\n      dup3\n        /* \"#utility.yul\":4950:4970   */\n      tag_60\n      jump\t// in\n    tag_126:\n        /* \"#utility.yul\":4945:4970   */\n      swap2\n      pop\n        /* \"#utility.yul\":4984:5004   */\n      tag_127\n        /* \"#utility.yul\":5002:5003   */\n      dup4\n        /* \"#utility.yul\":4984:5004   */\n      tag_60\n      jump\t// in\n    tag_127:\n        /* \"#utility.yul\":4979:5004   */\n      swap3\n      pop\n        /* \"#utility.yul\":5023:5024   */\n      dup3\n        /* \"#utility.yul\":5013:5048   */\n      tag_128\n      jumpi\n        /* \"#utility.yul\":5028:5046   */\n      tag_129\n      tag_77\n      jump\t// in\n    tag_129:\n        /* \"#utility.yul\":5013:5048   */\n    tag_128:\n        /* \"#utility.yul\":5069:5070   */\n      dup3\n        /* \"#utility.yul\":5066:5067   */\n      dup3\n        /* \"#utility.yul\":5062:5071   */\n      mod\n        /* \"#utility.yul\":5057:5071   */\n      swap1\n      pop\n        /* \"#utility.yul\":4901:5077   */\n      swap3\n      swap2\n      pop\n      pop\n      jump\t// out\n        /* \"#utility.yul\":5083:5263   */\n    tag_50:\n        /* \"#utility.yul\":5131:5208   */\n      0x4e487b7100000000000000000000000000000000000000000000000000000000\n        /* \"#utility.yul\":5128:5129   */\n      0x00\n        /* \"#utility.yul\":5121:5209   */\n      mstore\n        /* \"#utility.yul\":5228:5232   */\n      0x32\n        /* \"#utility.yul\":5225:5226   */\n      0x04\n        /* \"#utility.yul\":5218:5233   */\n      mstore\n        /* \"#utility.yul\":5252:5256   */\n      0x24\n        /* \"#utility.yul\":5249:5250   */\n      0x00\n        /* \"#utility.yul\":5242:5257   */\n      revert\n        /* \"#utility.yul\":5269:5348   */\n    tag_78:\n        /* \"#utility.yul\":5308:5315   */\n      0x00\n        /* \"#utility.yul\":5337:5342   */\n      dup2\n        /* \"#utility.yul\":5326:5342   */\n      swap1\n      pop\n        /* \"#utility.yul\":5269:5348   */\n      swap2\n      swap1\n      pop\n      jump\t// out\n        /* \"#utility.yul\":5354:5511   */\n    tag_79:\n        /* \"#utility.yul\":5459:5504   */\n      tag_133\n        /* \"#utility.yul\":5479:5503   */\n      tag_134\n        /* \"#utility.yul\":5497:5502   */\n      dup3\n        /* \"#utility.yul\":5479:5503   */\n      tag_60\n      jump\t// in\n    tag_134:\n        /* \"#utility.yul\":5459:5504   */\n      tag_78\n      jump\t// in\n    tag_133:\n        /* \"#utility.yul\":5454:5457   */\n      dup3\n        /* \"#utility.yul\":5447:5505   */\n      mstore\n        /* \"#utility.yul\":5354:5511   */\n      pop\n      pop\n      jump\t// out\n        /* \"#utility.yul\":5517:6055   */\n    tag_57:\n        /* \"#utility.yul\":5685:5688   */\n      0x00\n        /* \"#utility.yul\":5700:5775   */\n      tag_136\n        /* \"#utility.yul\":5771:5774   */\n      dup3\n        /* \"#utility.yul\":5762:5768   */\n      dup7\n        /* \"#utility.yul\":5700:5775   */\n      tag_79\n      jump\t// in\n    tag_136:\n        /* \"#utility.yul\":5800:5802   */\n      0x20\n        /* \"#utility.yul\":5795:5798   */\n      dup3\n        /* \"#utility.yul\":5791:5803   */\n      add\n        /* \"#utility.yul\":5784:5803   */\n      swap2\n      pop\n        /* \"#utility.yul\":5813:5888   */\n      tag_137\n        /* \"#utility.yul\":5884:5887   */\n      dup3\n        /* \"#utility.yul\":5875:5881   */\n      dup6\n        /* \"#utility.yul\":5813:5888   */\n      tag_79\n      jump\t// in\n    tag_137:\n        /* \"#utility.yul\":5913:5915   */\n      0x20\n        /* \"#utility.yul\":5908:5911   */\n      dup3\n        /* \"#utility.yul\":5904:5916   */\n      add\n        /* \"#utility.yul\":5897:5916   */\n      swap2\n      pop\n        /* \"#utility.yul\":5926:6001   */\n      tag_138\n        /* \"#utility.yul\":5997:6000   */\n      dup3\n        /* \"#utility.yul\":5988:5994   */\n      dup5\n        /* \"#utility.yul\":5926:6001   */\n      tag_79\n      jump\t// in\n    tag_138:\n        /* \"#utility.yul\":6026:6028   */\n      0x20\n        /* \"#utility.yul\":6021:6024   */\n      dup3\n        /* \"#utility.yul\":6017:6029   */\n      add\n        /* \"#utility.yul\":6010:6029   */\n      swap2\n      pop\n        /* \"#utility.yul\":6046:6049   */\n      dup2\n        /* \"#utility.yul\":6039:6049   */\n      swap1\n      pop\n        /* \"#utility.yul\":5517:6055   */\n      swap5\n      swap4\n      pop\n      pop\n      pop\n      pop\n      jump\t// out\n\n    auxdata: 0xa264697066735822122060ee1f8536d31bfb8b788a71c5689eb1de6b3bca8c1b968bf91303c5731c556664736f6c634300081c0033\n}\n",
				"bytecode": {
					"linkReferences": {},
					"object": "6080604052348015600e575f5ffd5b503360015f6101000a81548173ffffffffffffffffffffffffffffffffffffffff021916908373ffffffffffffffffffffffffffffffffffffffff1602179055506107748061005c5f395ff3fe60806040526004361061004d575f3560e01c806312065fe0146100c9578063481c6a75146100f35780635d495aea1461011d5780635ec01e4d14610133578063f71d96cb1461015d576100c5565b366100c55767016345785d8a00003414610065575f5ffd5b5f33908060018154018082558091505060019003905f5260205f20015f9091909190916101000a81548173ffffffffffffffffffffffffffffffffffffffff021916908373ffffffffffffffffffffffffffffffffffffffff1602179055005b5f5ffd5b3480156100d4575f5ffd5b506100dd610199565b6040516100ea9190610429565b60405180910390f35b3480156100fe575f5ffd5b506101076101f8565b6040516101149190610481565b60405180910390f35b348015610128575f5ffd5b5061013161021d565b005b34801561013e575f5ffd5b506101476103a0565b6040516101549190610429565b60405180910390f35b348015610168575f5ffd5b50610183600480360381019061017e91906104c8565b6103d7565b6040516101909190610513565b60405180910390f35b5f60015f9054906101000a900473ffffffffffffffffffffffffffffffffffffffff1673ffffffffffffffffffffffffffffffffffffffff163373ffffffffffffffffffffffffffffffffffffffff16146101f2575f5ffd5b47905090565b60015f9054906101000a900473ffffffffffffffffffffffffffffffffffffffff1681565b60015f9054906101000a900473ffffffffffffffffffffffffffffffffffffffff1673ffffffffffffffffffffffffffffffffffffffff163373ffffffffffffffffffffffffffffffffffffffff16146102ac576040517f08c379a00000000000000000000000000000000000000000000000000000000081526004016102a3906105ac565b60405180910390fd5b60035f8054905010156102f4576040517f08c379a00000000000000000000000000000000000000000000000000000000081526004016102eb9061063a565b60405180910390fd5b5f6102fd6103a0565b90505f5f5f80549050836103119190610685565b90505f8181548110610326576103256106b5565b5b905f5260205f20015f9054906101000a900473ffffffffffffffffffffffffffffffffffffffff1691508173ffffffffffffffffffffffffffffffffffffffff166108fc610372610199565b90811502906040515f60405180830381858888f1935050505015801561039a573d5f5f3e3d5ffd5b50505050565b5f44425f805490506040516020016103ba93929190610702565b604051602081830303815290604052805190602001205f1c905090565b5f81815481106103e5575f80fd5b905f5260205f20015f915054906101000a900473ffffffffffffffffffffffffffffffffffffffff1681565b5f819050919050565b61042381610411565b82525050565b5f60208201905061043c5f83018461041a565b92915050565b5f73ffffffffffffffffffffffffffffffffffffffff82169050919050565b5f61046b82610442565b9050919050565b61047b81610461565b82525050565b5f6020820190506104945f830184610472565b92915050565b5f5ffd5b6104a781610411565b81146104b1575f5ffd5b50565b5f813590506104c28161049e565b92915050565b5f602082840312156104dd576104dc61049a565b5b5f6104ea848285016104b4565b91505092915050565b5f6104fd82610442565b9050919050565b61050d816104f3565b82525050565b5f6020820190506105265f830184610504565b92915050565b5f82825260208201905092915050565b7f4f6e6c7920746865206d616e616765722063616e207069636b2061206c6f74745f8201527f6572792077696e6e65722e000000000000000000000000000000000000000000602082015250565b5f610596602b8361052c565b91506105a18261053c565b604082019050919050565b5f6020820190508181035f8301526105c38161058a565b9050919050565b7f4973206e6563657373617279206174206c6561737420746872656520706c61795f8201527f6572732e00000000000000000000000000000000000000000000000000000000602082015250565b5f61062460248361052c565b915061062f826105ca565b604082019050919050565b5f6020820190508181035f83015261065181610618565b9050919050565b7f4e487b71000000000000000000000000000000000000000000000000000000005f52601260045260245ffd5b5f61068f82610411565b915061069a83610411565b9250826106aa576106a9610658565b5b828206905092915050565b7f4e487b71000000000000000000000000000000000000000000000000000000005f52603260045260245ffd5b5f819050919050565b6106fc6106f782610411565b6106e2565b82525050565b5f61070d82866106eb565b60208201915061071d82856106eb565b60208201915061072d82846106eb565b60208201915081905094935050505056fea264697066735822122060ee1f8536d31bfb8b788a71c5689eb1de6b3bca8c1b968bf91303c5731c556664736f6c634300081c0033",
					"opcodes": "PUSH1 0x80 PUSH1 0x40 MSTORE CALLVALUE DUP1 ISZERO PUSH1 0xE JUMPI PUSH0 PUSH0 REVERT JUMPDEST POP CALLER PUSH1 0x1 PUSH0 PUSH2 0x100 EXP DUP2 SLOAD DUP2 PUSH20 0xFFFFFFFFFFFFFFFFFFFFFFFFFFFFFFFFFFFFFFFF MUL NOT AND SWAP1 DUP4 PUSH20 0xFFFFFFFFFFFFFFFFFFFFFFFFFFFFFFFFFFFFFFFF AND MUL OR SWAP1 SSTORE POP PUSH2 0x774 DUP1 PUSH2 0x5C PUSH0 CODECOPY PUSH0 RETURN INVALID PUSH1 0x80 PUSH1 0x40 MSTORE PUSH1 0x4 CALLDATASIZE LT PUSH2 0x4D JUMPI PUSH0 CALLDATALOAD PUSH1 0xE0 SHR DUP1 PUSH4 0x12065FE0 EQ PUSH2 0xC9 JUMPI DUP1 PUSH4 0x481C6A75 EQ PUSH2 0xF3 JUMPI DUP1 PUSH4 0x5D495AEA EQ PUSH2 0x11D JUMPI DUP1 PUSH4 0x5EC01E4D EQ PUSH2 0x133 JUMPI DUP1 PUSH4 0xF71D96CB EQ PUSH2 0x15D JUMPI PUSH2 0xC5 JUMP JUMPDEST CALLDATASIZE PUSH2 0xC5 JUMPI PUSH8 0x16345785D8A0000 CALLVALUE EQ PUSH2 0x65 JUMPI PUSH0 PUSH0 REVERT JUMPDEST PUSH0 CALLER SWAP1 DUP1 PUSH1 0x1 DUP2 SLOAD ADD DUP1 DUP3 SSTORE DUP1 SWAP2 POP POP PUSH1 0x1 SWAP1 SUB SWAP1 PUSH0 MSTORE PUSH1 0x20 PUSH0 KECCAK256 ADD PUSH0 SWAP1 SWAP2 SWAP1 SWAP2 SWAP1 SWAP2 PUSH2 0x100 EXP DUP2 SLOAD DUP2 PUSH20 0xFFFFFFFFFFFFFFFFFFFFFFFFFFFFFFFFFFFFFFFF MUL NOT AND SWAP1 DUP4 PUSH20 0xFFFFFFFFFFFFFFFFFFFFFFFFFFFFFFFFFFFFFFFF AND MUL OR SWAP1 SSTORE STOP JUMPDEST PUSH0 PUSH0 REVERT JUMPDEST CALLVALUE DUP1 ISZERO PUSH2 0xD4 JUMPI PUSH0 PUSH0 REVERT JUMPDEST POP PUSH2 0xDD PUSH2 0x199 JUMP JUMPDEST PUSH1 0x40 MLOAD PUSH2 0xEA SWAP2 SWAP1 PUSH2 0x429 JUMP JUMPDEST PUSH1 0x40 MLOAD DUP1 SWAP2 SUB SWAP1 RETURN JUMPDEST CALLVALUE DUP1 ISZERO PUSH2 0xFE JUMPI PUSH0 PUSH0 REVERT JUMPDEST POP PUSH2 0x107 PUSH2 0x1F8 JUMP JUMPDEST PUSH1 0x40 MLOAD PUSH2 0x114 SWAP2 SWAP1 PUSH2 0x481 JUMP JUMPDEST PUSH1 0x40 MLOAD DUP1 SWAP2 SUB SWAP1 RETURN JUMPDEST CALLVALUE DUP1 ISZERO PUSH2 0x128 JUMPI PUSH0 PUSH0 REVERT JUMPDEST POP PUSH2 0x131 PUSH2 0x21D JUMP JUMPDEST STOP JUMPDEST CALLVALUE DUP1 ISZERO PUSH2 0x13E JUMPI PUSH0 PUSH0 REVERT JUMPDEST POP PUSH2 0x147 PUSH2 0x3A0 JUMP JUMPDEST PUSH1 0x40 MLOAD PUSH2 0x154 SWAP2 SWAP1 PUSH2 0x429 JUMP JUMPDEST PUSH1 0x40 MLOAD DUP1 SWAP2 SUB SWAP1 RETURN JUMPDEST CALLVALUE DUP1 ISZERO PUSH2 0x168 JUMPI PUSH0 PUSH0 REVERT JUMPDEST POP PUSH2 0x183 PUSH1 0x4 DUP1 CALLDATASIZE SUB DUP2 ADD SWAP1 PUSH2 0x17E SWAP2 SWAP1 PUSH2 0x4C8 JUMP JUMPDEST PUSH2 0x3D7 JUMP JUMPDEST PUSH1 0x40 MLOAD PUSH2 0x190 SWAP2 SWAP1 PUSH2 0x513 JUMP JUMPDEST PUSH1 0x40 MLOAD DUP1 SWAP2 SUB SWAP1 RETURN JUMPDEST PUSH0 PUSH1 0x1 PUSH0 SWAP1 SLOAD SWAP1 PUSH2 0x100 EXP SWAP1 DIV PUSH20 0xFFFFFFFFFFFFFFFFFFFFFFFFFFFFFFFFFFFFFFFF AND PUSH20 0xFFFFFFFFFFFFFFFFFFFFFFFFFFFFFFFFFFFFFFFF AND CALLER PUSH20 0xFFFFFFFFFFFFFFFFFFFFFFFFFFFFFFFFFFFFFFFF AND EQ PUSH2 0x1F2 JUMPI PUSH0 PUSH0 REVERT JUMPDEST SELFBALANCE SWAP1 POP SWAP1 JUMP JUMPDEST PUSH1 0x1 PUSH0 SWAP1 SLOAD SWAP1 PUSH2 0x100 EXP SWAP1 DIV PUSH20 0xFFFFFFFFFFFFFFFFFFFFFFFFFFFFFFFFFFFFFFFF AND DUP2 JUMP JUMPDEST PUSH1 0x1 PUSH0 SWAP1 SLOAD SWAP1 PUSH2 0x100 EXP SWAP1 DIV PUSH20 0xFFFFFFFFFFFFFFFFFFFFFFFFFFFFFFFFFFFFFFFF AND PUSH20 0xFFFFFFFFFFFFFFFFFFFFFFFFFFFFFFFFFFFFFFFF AND CALLER PUSH20 0xFFFFFFFFFFFFFFFFFFFFFFFFFFFFFFFFFFFFFFFF AND EQ PUSH2 0x2AC JUMPI PUSH1 0x40 MLOAD PUSH32 0x8C379A000000000000000000000000000000000000000000000000000000000 DUP2 MSTORE PUSH1 0x4 ADD PUSH2 0x2A3 SWAP1 PUSH2 0x5AC JUMP JUMPDEST PUSH1 0x40 MLOAD DUP1 SWAP2 SUB SWAP1 REVERT JUMPDEST PUSH1 0x3 PUSH0 DUP1 SLOAD SWAP1 POP LT ISZERO PUSH2 0x2F4 JUMPI PUSH1 0x40 MLOAD PUSH32 0x8C379A000000000000000000000000000000000000000000000000000000000 DUP2 MSTORE PUSH1 0x4 ADD PUSH2 0x2EB SWAP1 PUSH2 0x63A JUMP JUMPDEST PUSH1 0x40 MLOAD DUP1 SWAP2 SUB SWAP1 REVERT JUMPDEST PUSH0 PUSH2 0x2FD PUSH2 0x3A0 JUMP JUMPDEST SWAP1 POP PUSH0 PUSH0 PUSH0 DUP1 SLOAD SWAP1 POP DUP4 PUSH2 0x311 SWAP2 SWAP1 PUSH2 0x685 JUMP JUMPDEST SWAP1 POP PUSH0 DUP2 DUP2 SLOAD DUP2 LT PUSH2 0x326 JUMPI PUSH2 0x325 PUSH2 0x6B5 JUMP JUMPDEST JUMPDEST SWAP1 PUSH0 MSTORE PUSH1 0x20 PUSH0 KECCAK256 ADD PUSH0 SWAP1 SLOAD SWAP1 PUSH2 0x100 EXP SWAP1 DIV PUSH20 0xFFFFFFFFFFFFFFFFFFFFFFFFFFFFFFFFFFFFFFFF AND SWAP2 POP DUP2 PUSH20 0xFFFFFFFFFFFFFFFFFFFFFFFFFFFFFFFFFFFFFFFF AND PUSH2 0x8FC PUSH2 0x372 PUSH2 0x199 JUMP JUMPDEST SWAP1 DUP2 ISZERO MUL SWAP1 PUSH1 0x40 MLOAD PUSH0 PUSH1 0x40 MLOAD DUP1 DUP4 SUB DUP2 DUP6 DUP9 DUP9 CALL SWAP4 POP POP POP POP ISZERO DUP1 ISZERO PUSH2 0x39A JUMPI RETURNDATASIZE PUSH0 PUSH0 RETURNDATACOPY RETURNDATASIZE PUSH0 REVERT JUMPDEST POP POP POP POP JUMP JUMPDEST PUSH0 PREVRANDAO TIMESTAMP PUSH0 DUP1 SLOAD SWAP1 POP PUSH1 0x40 MLOAD PUSH1 0x20 ADD PUSH2 0x3BA SWAP4 SWAP3 SWAP2 SWAP1 PUSH2 0x702 JUMP JUMPDEST PUSH1 0x40 MLOAD PUSH1 0x20 DUP2 DUP4 SUB SUB DUP2 MSTORE SWAP1 PUSH1 0x40 MSTORE DUP1 MLOAD SWAP1 PUSH1 0x20 ADD KECCAK256 PUSH0 SHR SWAP1 POP SWAP1 JUMP JUMPDEST PUSH0 DUP2 DUP2 SLOAD DUP2 LT PUSH2 0x3E5 JUMPI PUSH0 DUP1 REVERT JUMPDEST SWAP1 PUSH0 MSTORE PUSH1 0x20 PUSH0 KECCAK256 ADD PUSH0 SWAP2 POP SLOAD SWAP1 PUSH2 0x100 EXP SWAP1 DIV PUSH20 0xFFFFFFFFFFFFFFFFFFFFFFFFFFFFFFFFFFFFFFFF AND DUP2 JUMP JUMPDEST PUSH0 DUP2 SWAP1 POP SWAP2 SWAP1 POP JUMP JUMPDEST PUSH2 0x423 DUP2 PUSH2 0x411 JUMP JUMPDEST DUP3 MSTORE POP POP JUMP JUMPDEST PUSH0 PUSH1 0x20 DUP3 ADD SWAP1 POP PUSH2 0x43C PUSH0 DUP4 ADD DUP5 PUSH2 0x41A JUMP JUMPDEST SWAP3 SWAP2 POP POP JUMP JUMPDEST PUSH0 PUSH20 0xFFFFFFFFFFFFFFFFFFFFFFFFFFFFFFFFFFFFFFFF DUP3 AND SWAP1 POP SWAP2 SWAP1 POP JUMP JUMPDEST PUSH0 PUSH2 0x46B DUP3 PUSH2 0x442 JUMP JUMPDEST SWAP1 POP SWAP2 SWAP1 POP JUMP JUMPDEST PUSH2 0x47B DUP2 PUSH2 0x461 JUMP JUMPDEST DUP3 MSTORE POP POP JUMP JUMPDEST PUSH0 PUSH1 0x20 DUP3 ADD SWAP1 POP PUSH2 0x494 PUSH0 DUP4 ADD DUP5 PUSH2 0x472 JUMP JUMPDEST SWAP3 SWAP2 POP POP JUMP JUMPDEST PUSH0 PUSH0 REVERT JUMPDEST PUSH2 0x4A7 DUP2 PUSH2 0x411 JUMP JUMPDEST DUP2 EQ PUSH2 0x4B1 JUMPI PUSH0 PUSH0 REVERT JUMPDEST POP JUMP JUMPDEST PUSH0 DUP2 CALLDATALOAD SWAP1 POP PUSH2 0x4C2 DUP2 PUSH2 0x49E JUMP JUMPDEST SWAP3 SWAP2 POP POP JUMP JUMPDEST PUSH0 PUSH1 0x20 DUP3 DUP5 SUB SLT ISZERO PUSH2 0x4DD JUMPI PUSH2 0x4DC PUSH2 0x49A JUMP JUMPDEST JUMPDEST PUSH0 PUSH2 0x4EA DUP5 DUP3 DUP6 ADD PUSH2 0x4B4 JUMP JUMPDEST SWAP2 POP POP SWAP3 SWAP2 POP POP JUMP JUMPDEST PUSH0 PUSH2 0x4FD DUP3 PUSH2 0x442 JUMP JUMPDEST SWAP1 POP SWAP2 SWAP1 POP JUMP JUMPDEST PUSH2 0x50D DUP2 PUSH2 0x4F3 JUMP JUMPDEST DUP3 MSTORE POP POP JUMP JUMPDEST PUSH0 PUSH1 0x20 DUP3 ADD SWAP1 POP PUSH2 0x526 PUSH0 DUP4 ADD DUP5 PUSH2 0x504 JUMP JUMPDEST SWAP3 SWAP2 POP POP JUMP JUMPDEST PUSH0 DUP3 DUP3 MSTORE PUSH1 0x20 DUP3 ADD SWAP1 POP SWAP3 SWAP2 POP POP JUMP JUMPDEST PUSH32 0x4F6E6C7920746865206D616E616765722063616E207069636B2061206C6F7474 PUSH0 DUP3 ADD MSTORE PUSH32 0x6572792077696E6E65722E000000000000000000000000000000000000000000 PUSH1 0x20 DUP3 ADD MSTORE POP JUMP JUMPDEST PUSH0 PUSH2 0x596 PUSH1 0x2B DUP4 PUSH2 0x52C JUMP JUMPDEST SWAP2 POP PUSH2 0x5A1 DUP3 PUSH2 0x53C JUMP JUMPDEST PUSH1 0x40 DUP3 ADD SWAP1 POP SWAP2 SWAP1 POP JUMP JUMPDEST PUSH0 PUSH1 0x20 DUP3 ADD SWAP1 POP DUP2 DUP2 SUB PUSH0 DUP4 ADD MSTORE PUSH2 0x5C3 DUP2 PUSH2 0x58A JUMP JUMPDEST SWAP1 POP SWAP2 SWAP1 POP JUMP JUMPDEST PUSH32 0x4973206E6563657373617279206174206C6561737420746872656520706C6179 PUSH0 DUP3 ADD MSTORE PUSH32 0x6572732E00000000000000000000000000000000000000000000000000000000 PUSH1 0x20 DUP3 ADD MSTORE POP JUMP JUMPDEST PUSH0 PUSH2 0x624 PUSH1 0x24 DUP4 PUSH2 0x52C JUMP JUMPDEST SWAP2 POP PUSH2 0x62F DUP3 PUSH2 0x5CA JUMP JUMPDEST PUSH1 0x40 DUP3 ADD SWAP1 POP SWAP2 SWAP1 POP JUMP JUMPDEST PUSH0 PUSH1 0x20 DUP3 ADD SWAP1 POP DUP2 DUP2 SUB PUSH0 DUP4 ADD MSTORE PUSH2 0x651 DUP2 PUSH2 0x618 JUMP JUMPDEST SWAP1 POP SWAP2 SWAP1 POP JUMP JUMPDEST PUSH32 0x4E487B7100000000000000000000000000000000000000000000000000000000 PUSH0 MSTORE PUSH1 0x12 PUSH1 0x4 MSTORE PUSH1 0x24 PUSH0 REVERT JUMPDEST PUSH0 PUSH2 0x68F DUP3 PUSH2 0x411 JUMP JUMPDEST SWAP2 POP PUSH2 0x69A DUP4 PUSH2 0x411 JUMP JUMPDEST SWAP3 POP DUP3 PUSH2 0x6AA JUMPI PUSH2 0x6A9 PUSH2 0x658 JUMP JUMPDEST JUMPDEST DUP3 DUP3 MOD SWAP1 POP SWAP3 SWAP2 POP POP JUMP JUMPDEST PUSH32 0x4E487B7100000000000000000000000000000000000000000000000000000000 PUSH0 MSTORE PUSH1 0x32 PUSH1 0x4 MSTORE PUSH1 0x24 PUSH0 REVERT JUMPDEST PUSH0 DUP2 SWAP1 POP SWAP2 SWAP1 POP JUMP JUMPDEST PUSH2 0x6FC PUSH2 0x6F7 DUP3 PUSH2 0x411 JUMP JUMPDEST PUSH2 0x6E2 JUMP JUMPDEST DUP3 MSTORE POP POP JUMP JUMPDEST PUSH0 PUSH2 0x70D DUP3 DUP7 PUSH2 0x6EB JUMP JUMPDEST PUSH1 0x20 DUP3 ADD SWAP2 POP PUSH2 0x71D DUP3 DUP6 PUSH2 0x6EB JUMP JUMPDEST PUSH1 0x20 DUP3 ADD SWAP2 POP PUSH2 0x72D DUP3 DUP5 PUSH2 0x6EB JUMP JUMPDEST PUSH1 0x20 DUP3 ADD SWAP2 POP DUP2 SWAP1 POP SWAP5 SWAP4 POP POP POP POP JUMP INVALID LOG2 PUSH5 0x6970667358 0x22 SLT KECCAK256 PUSH1 0xEE 0x1F DUP6 CALLDATASIZE 0xD3 SHL 0xFB DUP12 PUSH25 0x8A71C5689EB1DE6B3BCA8C1B968BF91303C5731C556664736F PUSH13 0x634300081C0033000000000000 "
				},
				"gasEstimates": {
					"creation": {
						"codeDepositCost": "381600",
						"executionCost": "24681",
						"totalCost": "406281"
					},
					"external": {
						"getBalance()": "2481",
						"manager()": "2508",
						"pickWinner()": "infinite",
						"players(uint256)": "5009",
						"random()": "infinite"
					}
				},
				"methodIdentifiers": {
					"getBalance()": "12065fe0",
					"manager()": "481c6a75",
					"pickWinner()": "5d495aea",
					"players(uint256)": "f71d96cb",
					"random()": "5ec01e4d"
				}
			},
			"storageLayout": {
				"storage": [
					{
						"astId": 4,
						"contract": "src/lottery.sol:Lottery",
						"label": "players",
						"offset": 0,
						"slot": "0",
						"type": "t_array(t_address_payable)dyn_storage"
					},
					{
						"astId": 6,
						"contract": "src/lottery.sol:Lottery",
						"label": "manager",
						"offset": 0,
						"slot": "1",
						"type": "t_address"
					}
				],
				"types": {
					"t_address": {
						"encoding": "inplace",
						"label": "address",
						"numberOfBytes": "20"
					},
					"t_address_payable": {
						"encoding": "inplace",
						"label": "address payable",
						"numberOfBytes": "20"
					},
					"t_array(t_address_payable)dyn_storage": {
						"base": "t_address_payable",
						"encoding": "dynamic_array",
						"label": "address payable[]",
						"numberOfBytes": "32"
					}
				}
			},
			"userdoc": {
				"kind": "user",
				"methods": {},
				"version": 1
			}
		}
	}
}